{
    "contractName": "MyV2FlashLoan",
    "abi": [
        {
            "inputs": [
                {
                    "internalType": "contract ILendingPoolAddressesProvider",
                    "name": "_addressProvider",
                    "type": "address"
                }
            ],
            "stateMutability": "nonpayable",
            "type": "constructor"
        },
        {
            "inputs": [],
            "name": "ADDRESSES_PROVIDER",
            "outputs": [
                {
                    "internalType": "contract ILendingPoolAddressesProvider",
                    "name": "",
                    "type": "address"
                }
            ],
            "stateMutability": "view",
            "type": "function"
        },
        {
            "inputs": [],
            "name": "LENDING_POOL",
            "outputs": [
                {
                    "internalType": "contract ILendingPool",
                    "name": "",
                    "type": "address"
                }
            ],
            "stateMutability": "view",
            "type": "function"
        },
        {
            "inputs": [
                {
                    "internalType": "address[]",
                    "name": "assets",
                    "type": "address[]"
                },
                {
                    "internalType": "uint256[]",
                    "name": "amounts",
                    "type": "uint256[]"
                },
                {
                    "internalType": "uint256[]",
                    "name": "premiums",
                    "type": "uint256[]"
                },
                {
                    "internalType": "address",
                    "name": "initiator",
                    "type": "address"
                },
                {
                    "internalType": "bytes",
                    "name": "params",
                    "type": "bytes"
                }
            ],
            "name": "executeOperation",
            "outputs": [
                {
                    "internalType": "bool",
                    "name": "",
                    "type": "bool"
                }
            ],
            "stateMutability": "nonpayable",
            "type": "function"
        },
        {
            "inputs": [],
            "name": "myFlashLoanCall",
            "outputs": [],
            "stateMutability": "nonpayable",
            "type": "function"
        }
    ],
    "bytecode": "60c060405234801561000f575f80fd5b50604051610bc7380380610bc783398101604081905261002e916100d4565b80806001600160a01b03166080816001600160a01b031681525050806001600160a01b0316630261bf8b6040518163ffffffff1660e01b8152600401602060405180830381865afa158015610085573d5f803e3d5ffd5b505050506040513d601f19601f820116820180604052508101906100a991906100d4565b6001600160a01b031660a052506100f69050565b6001600160a01b03811681146100d1575f80fd5b50565b5f602082840312156100e4575f80fd5b81516100ef816100bd565b9392505050565b60805160a051610aa46101235f395f818160ba01528181610175015261068801525f60530152610aa45ff3fe608060405234801561000f575f80fd5b506004361061004a575f3560e01c80630542975c1461004e578063920f5c8414610092578063b4dcfc77146100b5578063f03b5329146100dc575b5f80fd5b6100757f000000000000000000000000000000000000000000000000000000000000000081565b6040516001600160a01b0390911681526020015b60405180910390f35b6100a56100a03660046107cd565b6100e6565b6040519015158152602001610089565b6100757f000000000000000000000000000000000000000000000000000000000000000081565b6100e461020b565b005b5f805b898110156101fa575f610135888884818110610107576101076108c4565b905060200201358b8b85818110610120576101206108c4565b905060200201356106ff90919063ffffffff16565b90508b8b83818110610149576101496108c4565b905060200201602081019061015e91906108d8565b60405163095ea7b360e01b81526001600160a01b037f00000000000000000000000000000000000000000000000000000000000000008116600483015260248201849052919091169063095ea7b3906044016020604051808303815f875af11580156101cc573d5f803e3d5ffd5b505050506040513d601f19601f820116820180604052508101906101f091906108f8565b50506001016100e9565b5060019a9950505050505050505050565b604080516007808252610100820190925230915f91906020820160e08036833701905050905073b597cd8d3217ea6477232f9217fa70837ff667af815f81518110610258576102586108c4565b60200260200101906001600160a01b031690816001600160a01b031681525050732d12186fbb9f9a8c28b3ffdd4c42920f8539d738816001815181106102a0576102a06108c4565b60200260200101906001600160a01b031690816001600160a01b03168152505073ff795577d9ac8bd7d90ee22b6c1703490b6512fd816002815181106102e8576102e86108c4565b60200260200101906001600160a01b031690816001600160a01b03168152505073075a36ba8846c6b6f53644fdd3bf17e5151789dc81600381518110610330576103306108c4565b60200260200101906001600160a01b031690816001600160a01b03168152505073b7c325266ec274feb1354021d27fa3e3379d840d81600481518110610378576103786108c4565b60200260200101906001600160a01b031690816001600160a01b03168152505073ad5ce863ae3e4e9394ab43d4ba0d80f419f61789816005815181106103c0576103c06108c4565b60200260200101906001600160a01b031690816001600160a01b031681525050737fdb81b0b8a010dd4ffc57c3fecbf145ba8bd94781600681518110610408576104086108c4565b6001600160a01b039290921660209283029190910182015260408051600780825261010082019092525f92909190820160e080368337019050509050670de0b6b3a7640000815f8151811061045f5761045f6108c4565b602002602001018181525050670de0b6b3a764000081600181518110610487576104876108c4565b602002602001018181525050670de0b6b3a7640000816002815181106104af576104af6108c4565b602002602001018181525050670de0b6b3a7640000816003815181106104d7576104d76108c4565b602002602001018181525050670de0b6b3a7640000816004815181106104ff576104ff6108c4565b602002602001018181525050670de0b6b3a764000081600581518110610527576105276108c4565b602002602001018181525050670de0b6b3a76400008160068151811061054f5761054f6108c4565b602090810291909101015260408051600780825261010082019092525f918160200160208202803683370190505090505f815f81518110610592576105926108c4565b6020026020010181815250505f816001815181106105b2576105b26108c4565b6020026020010181815250505f816002815181106105d2576105d26108c4565b6020026020010181815250505f816003815181106105f2576105f26108c4565b6020026020010181815250505f81600481518110610612576106126108c4565b6020026020010181815250505f81600581518110610632576106326108c4565b6020026020010181815250505f81600681518110610652576106526108c4565b6020908102919091018101919091526040805191820181525f808352905163ab9c4b5d60e01b8152309291906001600160a01b037f0000000000000000000000000000000000000000000000000000000000000000169063ab9c4b5d906106c9908a908a908a908a908a908a908a90600401610994565b5f604051808303815f87803b1580156106e0575f80fd5b505af11580156106f2573d5f803e3d5ffd5b5050505050505050505050565b5f8061070b8385610a4f565b9050838110156107615760405162461bcd60e51b815260206004820152601b60248201527f536166654d6174683a206164646974696f6e206f766572666c6f770000000000604482015260640160405180910390fd5b90505b92915050565b5f8083601f84011261077a575f80fd5b50813567ffffffffffffffff811115610791575f80fd5b6020830191508360208260051b85010111156107ab575f80fd5b9250929050565b80356001600160a01b03811681146107c8575f80fd5b919050565b5f805f805f805f805f60a08a8c0312156107e5575f80fd5b893567ffffffffffffffff808211156107fc575f80fd5b6108088d838e0161076a565b909b50995060208c0135915080821115610820575f80fd5b61082c8d838e0161076a565b909950975060408c0135915080821115610844575f80fd5b6108508d838e0161076a565b909750955085915061086460608d016107b2565b945060808c0135915080821115610879575f80fd5b818c0191508c601f83011261088c575f80fd5b81358181111561089a575f80fd5b8d60208285010111156108ab575f80fd5b6020830194508093505050509295985092959850929598565b634e487b7160e01b5f52603260045260245ffd5b5f602082840312156108e8575f80fd5b6108f1826107b2565b9392505050565b5f60208284031215610908575f80fd5b81518015158114610761575f80fd5b5f815180845260208085019450602084015f5b838110156109465781518752958201959082019060010161092a565b509495945050505050565b5f81518084525f5b8181101561097557602081850181015186830182015201610959565b505f602082860101526020601f19601f83011685010191505092915050565b6001600160a01b03888116825260e0602080840182905289519184018290525f928a820192909190610100860190855b818110156109e25785518516835294830194918301916001016109c4565b505085810360408701526109f6818c610917565b93505050508281036060840152610a0d8188610917565b6001600160a01b0387166080850152905082810360a0840152610a308186610951565b915050610a4360c083018461ffff169052565b98975050505050505050565b8082018082111561076457634e487b7160e01b5f52601160045260245ffdfea2646970667358221220560d76ceb4beda93c319a8914c3812d50825b3d6c379707b4d9a78c716d6884f64736f6c63430008180033",
    "sourcePath": "/Users/greenhouse/devcrypto/git/defi-arb/contracts/aave/Flash Loan - Batch/MyV2FlashLoan.sol",
    "compiler": {
        "name": "solc",
        "version": "0.8.24+commit.e11b9ed9"
    },
    "functionHashes": {
        "ADDRESSES_PROVIDER()": "0542975c",
        "LENDING_POOL()": "b4dcfc77",
        "executeOperation(address[],uint256[],uint256[],address,bytes)": "920f5c84",
        "myFlashLoanCall()": "f03b5329"
    },
    "gasEstimates": {
        "creation": {
            "codeDepositCost": "544800",
            "executionCost": "infinite",
            "totalCost": "infinite"
        },
        "external": {
            "ADDRESSES_PROVIDER()": "infinite",
            "LENDING_POOL()": "infinite",
            "executeOperation(address[],uint256[],uint256[],address,bytes)": "infinite",
            "myFlashLoanCall()": "infinite"
        }
    }
}